{
  "_format": "hh-sol-artifact-1",
  "contractName": "nftmarketplace",
  "sourceName": "contracts/nftmarketplace.sol",
  "abi": [
    {
      "inputs": [],
      "stateMutability": "nonpayable",
      "type": "constructor"
    },
    {
      "anonymous": false,
      "inputs": [
        {
          "indexed": true,
          "internalType": "address",
          "name": "owner",
          "type": "address"
        },
        {
          "indexed": true,
          "internalType": "address",
          "name": "approved",
          "type": "address"
        },
        {
          "indexed": true,
          "internalType": "uint256",
          "name": "tokenId",
          "type": "uint256"
        }
      ],
      "name": "Approval",
      "type": "event"
    },
    {
      "anonymous": false,
      "inputs": [
        {
          "indexed": true,
          "internalType": "address",
          "name": "owner",
          "type": "address"
        },
        {
          "indexed": true,
          "internalType": "address",
          "name": "operator",
          "type": "address"
        },
        {
          "indexed": false,
          "internalType": "bool",
          "name": "approved",
          "type": "bool"
        }
      ],
      "name": "ApprovalForAll",
      "type": "event"
    },
    {
      "anonymous": false,
      "inputs": [
        {
          "indexed": true,
          "internalType": "address",
          "name": "from",
          "type": "address"
        },
        {
          "indexed": true,
          "internalType": "address",
          "name": "to",
          "type": "address"
        },
        {
          "indexed": true,
          "internalType": "uint256",
          "name": "tokenId",
          "type": "uint256"
        }
      ],
      "name": "Transfer",
      "type": "event"
    },
    {
      "inputs": [
        {
          "internalType": "address",
          "name": "to",
          "type": "address"
        },
        {
          "internalType": "uint256",
          "name": "tokenId",
          "type": "uint256"
        }
      ],
      "name": "approve",
      "outputs": [],
      "stateMutability": "nonpayable",
      "type": "function"
    },
    {
      "inputs": [
        {
          "internalType": "address",
          "name": "owner",
          "type": "address"
        }
      ],
      "name": "balanceOf",
      "outputs": [
        {
          "internalType": "uint256",
          "name": "",
          "type": "uint256"
        }
      ],
      "stateMutability": "view",
      "type": "function"
    },
    {
      "inputs": [
        {
          "internalType": "uint256",
          "name": "tokenId",
          "type": "uint256"
        }
      ],
      "name": "buyFromMarketitems",
      "outputs": [],
      "stateMutability": "payable",
      "type": "function"
    },
    {
      "inputs": [],
      "name": "fetchMyNfts",
      "outputs": [
        {
          "components": [
            {
              "internalType": "uint256",
              "name": "tokenId",
              "type": "uint256"
            },
            {
              "internalType": "address payable",
              "name": "seller",
              "type": "address"
            },
            {
              "internalType": "address payable",
              "name": "owner",
              "type": "address"
            },
            {
              "internalType": "address payable",
              "name": "artist",
              "type": "address"
            },
            {
              "internalType": "uint256",
              "name": "price",
              "type": "uint256"
            },
            {
              "internalType": "uint256",
              "name": "royalty",
              "type": "uint256"
            },
            {
              "internalType": "bool",
              "name": "sold",
              "type": "bool"
            },
            {
              "internalType": "uint256",
              "name": "likeCount",
              "type": "uint256"
            }
          ],
          "internalType": "struct nftmarketplace.Marketplaceitem[]",
          "name": "",
          "type": "tuple[]"
        }
      ],
      "stateMutability": "view",
      "type": "function"
    },
    {
      "inputs": [],
      "name": "getAllMarketitems",
      "outputs": [
        {
          "components": [
            {
              "internalType": "uint256",
              "name": "tokenId",
              "type": "uint256"
            },
            {
              "internalType": "address payable",
              "name": "seller",
              "type": "address"
            },
            {
              "internalType": "address payable",
              "name": "owner",
              "type": "address"
            },
            {
              "internalType": "address payable",
              "name": "artist",
              "type": "address"
            },
            {
              "internalType": "uint256",
              "name": "price",
              "type": "uint256"
            },
            {
              "internalType": "uint256",
              "name": "royalty",
              "type": "uint256"
            },
            {
              "internalType": "bool",
              "name": "sold",
              "type": "bool"
            },
            {
              "internalType": "uint256",
              "name": "likeCount",
              "type": "uint256"
            }
          ],
          "internalType": "struct nftmarketplace.Marketplaceitem[]",
          "name": "",
          "type": "tuple[]"
        }
      ],
      "stateMutability": "view",
      "type": "function"
    },
    {
      "inputs": [
        {
          "internalType": "uint256",
          "name": "tokenId",
          "type": "uint256"
        }
      ],
      "name": "getApproved",
      "outputs": [
        {
          "internalType": "address",
          "name": "",
          "type": "address"
        }
      ],
      "stateMutability": "view",
      "type": "function"
    },
    {
      "inputs": [
        {
          "internalType": "address",
          "name": "owner",
          "type": "address"
        },
        {
          "internalType": "address",
          "name": "operator",
          "type": "address"
        }
      ],
      "name": "isApprovedForAll",
      "outputs": [
        {
          "internalType": "bool",
          "name": "",
          "type": "bool"
        }
      ],
      "stateMutability": "view",
      "type": "function"
    },
    {
      "inputs": [
        {
          "internalType": "string",
          "name": "tokenURI",
          "type": "string"
        },
        {
          "internalType": "uint256",
          "name": "price",
          "type": "uint256"
        },
        {
          "internalType": "uint256",
          "name": "royalty",
          "type": "uint256"
        }
      ],
      "name": "mintToken",
      "outputs": [
        {
          "internalType": "uint256",
          "name": "",
          "type": "uint256"
        }
      ],
      "stateMutability": "payable",
      "type": "function"
    },
    {
      "inputs": [],
      "name": "name",
      "outputs": [
        {
          "internalType": "string",
          "name": "",
          "type": "string"
        }
      ],
      "stateMutability": "view",
      "type": "function"
    },
    {
      "inputs": [
        {
          "internalType": "uint256",
          "name": "tokenId",
          "type": "uint256"
        }
      ],
      "name": "ownerOf",
      "outputs": [
        {
          "internalType": "address",
          "name": "",
          "type": "address"
        }
      ],
      "stateMutability": "view",
      "type": "function"
    },
    {
      "inputs": [
        {
          "internalType": "uint256",
          "name": "tokenId",
          "type": "uint256"
        },
        {
          "internalType": "uint256",
          "name": "price",
          "type": "uint256"
        }
      ],
      "name": "resellToken",
      "outputs": [],
      "stateMutability": "payable",
      "type": "function"
    },
    {
      "inputs": [
        {
          "internalType": "address",
          "name": "from",
          "type": "address"
        },
        {
          "internalType": "address",
          "name": "to",
          "type": "address"
        },
        {
          "internalType": "uint256",
          "name": "tokenId",
          "type": "uint256"
        }
      ],
      "name": "safeTransferFrom",
      "outputs": [],
      "stateMutability": "nonpayable",
      "type": "function"
    },
    {
      "inputs": [
        {
          "internalType": "address",
          "name": "from",
          "type": "address"
        },
        {
          "internalType": "address",
          "name": "to",
          "type": "address"
        },
        {
          "internalType": "uint256",
          "name": "tokenId",
          "type": "uint256"
        },
        {
          "internalType": "bytes",
          "name": "_data",
          "type": "bytes"
        }
      ],
      "name": "safeTransferFrom",
      "outputs": [],
      "stateMutability": "nonpayable",
      "type": "function"
    },
    {
      "inputs": [
        {
          "internalType": "address",
          "name": "operator",
          "type": "address"
        },
        {
          "internalType": "bool",
          "name": "approved",
          "type": "bool"
        }
      ],
      "name": "setApprovalForAll",
      "outputs": [],
      "stateMutability": "nonpayable",
      "type": "function"
    },
    {
      "inputs": [
        {
          "internalType": "bytes4",
          "name": "interfaceId",
          "type": "bytes4"
        }
      ],
      "name": "supportsInterface",
      "outputs": [
        {
          "internalType": "bool",
          "name": "",
          "type": "bool"
        }
      ],
      "stateMutability": "view",
      "type": "function"
    },
    {
      "inputs": [],
      "name": "symbol",
      "outputs": [
        {
          "internalType": "string",
          "name": "",
          "type": "string"
        }
      ],
      "stateMutability": "view",
      "type": "function"
    },
    {
      "inputs": [
        {
          "internalType": "uint256",
          "name": "tokenId",
          "type": "uint256"
        }
      ],
      "name": "tokenURI",
      "outputs": [
        {
          "internalType": "string",
          "name": "",
          "type": "string"
        }
      ],
      "stateMutability": "view",
      "type": "function"
    },
    {
      "inputs": [
        {
          "internalType": "address",
          "name": "from",
          "type": "address"
        },
        {
          "internalType": "address",
          "name": "to",
          "type": "address"
        },
        {
          "internalType": "uint256",
          "name": "tokenId",
          "type": "uint256"
        }
      ],
      "name": "transferFrom",
      "outputs": [],
      "stateMutability": "nonpayable",
      "type": "function"
    }
  ],
  "bytecode": "0x60806040523480156200001157600080fd5b506040518060400160405280600481526020017f54455354000000000000000000000000000000000000000000000000000000008152506040518060400160405280600481526020017f244e465400000000000000000000000000000000000000000000000000000000815250816000908051906020019062000096929190620000f9565b508060019080519060200190620000af929190620000f9565b50505033600960006101000a81548173ffffffffffffffffffffffffffffffffffffffff021916908373ffffffffffffffffffffffffffffffffffffffff1602179055506200020e565b8280546200010790620001a9565b90600052602060002090601f0160209004810192826200012b576000855562000177565b82601f106200014657805160ff191683800117855562000177565b8280016001018555821562000177579182015b828111156200017657825182559160200191906001019062000159565b5b5090506200018691906200018a565b5090565b5b80821115620001a55760008160009055506001016200018b565b5090565b60006002820490506001821680620001c257607f821691505b60208210811415620001d957620001d8620001df565b5b50919050565b7f4e487b7100000000000000000000000000000000000000000000000000000000600052602260045260246000fd5b61416b806200021e6000396000f3fe6080604052600436106101095760003560e01c806395d89b4111610095578063c46f2a6b11610064578063c46f2a6b1461036c578063c87b56dd14610397578063e219fc75146103d4578063e3765620146103f0578063e985e9c51461042057610109565b806395d89b41146102d3578063a22cb465146102fe578063ad2fad0714610327578063b88d4fde1461034357610109565b8063128ae712116100dc578063128ae712146101dc57806323b872dd1461020757806342842e0e146102305780636352211e1461025957806370a082311461029657610109565b806301ffc9a71461010e57806306fdde031461014b578063081812fc14610176578063095ea7b3146101b3575b600080fd5b34801561011a57600080fd5b5061013560048036038101906101309190612c10565b61045d565b6040516101429190613316565b60405180910390f35b34801561015757600080fd5b5061016061053f565b60405161016d9190613331565b60405180910390f35b34801561018257600080fd5b5061019d60048036038101906101989190612cc9565b6105d1565b6040516101aa919061328d565b60405180910390f35b3480156101bf57600080fd5b506101da60048036038101906101d59190612bd4565b610656565b005b3480156101e857600080fd5b506101f161076e565b6040516101fe91906132f4565b60405180910390f35b34801561021357600080fd5b5061022e60048036038101906102299190612ace565b610b13565b005b34801561023c57600080fd5b5061025760048036038101906102529190612ace565b610b73565b005b34801561026557600080fd5b50610280600480360381019061027b9190612cc9565b610b93565b60405161028d919061328d565b60405180910390f35b3480156102a257600080fd5b506102bd60048036038101906102b89190612a69565b610c45565b6040516102ca9190613633565b60405180910390f35b3480156102df57600080fd5b506102e8610cfd565b6040516102f59190613331565b60405180910390f35b34801561030a57600080fd5b5061032560048036038101906103209190612b98565b610d8f565b005b610341600480360381019061033c9190612cc9565b610da5565b005b34801561034f57600080fd5b5061036a60048036038101906103659190612b1d565b611022565b005b34801561037857600080fd5b50610381611084565b60405161038e91906132f4565b60405180910390f35b3480156103a357600080fd5b506103be60048036038101906103b99190612cc9565b6113a4565b6040516103cb9190613331565b60405180910390f35b6103ee60048036038101906103e99190612cf2565b6114f6565b005b61040a60048036038101906104059190612c62565b6116ff565b6040516104179190613633565b60405180910390f35b34801561042c57600080fd5b5061044760048036038101906104429190612a92565b611785565b6040516104549190613316565b60405180910390f35b60007f80ac58cd000000000000000000000000000000000000000000000000000000007bffffffffffffffffffffffffffffffffffffffffffffffffffffffff1916827bffffffffffffffffffffffffffffffffffffffffffffffffffffffff1916148061052857507f5b5e139f000000000000000000000000000000000000000000000000000000007bffffffffffffffffffffffffffffffffffffffffffffffffffffffff1916827bffffffffffffffffffffffffffffffffffffffffffffffffffffffff1916145b80610538575061053782611819565b5b9050919050565b60606000805461054e906138d4565b80601f016020809104026020016040519081016040528092919081815260200182805461057a906138d4565b80156105c75780601f1061059c576101008083540402835291602001916105c7565b820191906000526020600020905b8154815290600101906020018083116105aa57829003601f168201915b5050505050905090565b60006105dc82611883565b61061b576040517f08c379a000000000000000000000000000000000000000000000000000000000815260040161061290613553565b60405180910390fd5b6004600083815260200190815260200160002060009054906101000a900473ffffffffffffffffffffffffffffffffffffffff169050919050565b600061066182610b93565b90508073ffffffffffffffffffffffffffffffffffffffff168373ffffffffffffffffffffffffffffffffffffffff1614156106d2576040517f08c379a00000000000000000000000000000000000000000000000000000000081526004016106c9906135d3565b60405180910390fd5b8073ffffffffffffffffffffffffffffffffffffffff166106f16118ef565b73ffffffffffffffffffffffffffffffffffffffff161480610720575061071f8161071a6118ef565b611785565b5b61075f576040517f08c379a000000000000000000000000000000000000000000000000000000000815260040161075690613493565b60405180910390fd5b61076983836118f7565b505050565b6060600061077c60076119b0565b905060008060005b83811015610825573373ffffffffffffffffffffffffffffffffffffffff16600a60006001846107b49190613751565b815260200190815260200160002060020160009054906101000a900473ffffffffffffffffffffffffffffffffffffffff1673ffffffffffffffffffffffffffffffffffffffff1614156108125760018361080f9190613751565b92505b808061081d90613937565b915050610784565b5060008267ffffffffffffffff811115610868577f4e487b7100000000000000000000000000000000000000000000000000000000600052604160045260246000fd5b6040519080825280602002602001820160405280156108a157816020015b61088e612804565b8152602001906001900390816108865790505b50905060005b84811015610b08573373ffffffffffffffffffffffffffffffffffffffff16600a60006001846108d79190613751565b815260200190815260200160002060020160009054906101000a900473ffffffffffffffffffffffffffffffffffffffff1673ffffffffffffffffffffffffffffffffffffffff161415610af55760006001826109349190613751565b90506000600a600083815260200190815260200160002090508060405180610100016040529081600082015481526020016001820160009054906101000a900473ffffffffffffffffffffffffffffffffffffffff1673ffffffffffffffffffffffffffffffffffffffff1673ffffffffffffffffffffffffffffffffffffffff1681526020016002820160009054906101000a900473ffffffffffffffffffffffffffffffffffffffff1673ffffffffffffffffffffffffffffffffffffffff1673ffffffffffffffffffffffffffffffffffffffff1681526020016003820160009054906101000a900473ffffffffffffffffffffffffffffffffffffffff1673ffffffffffffffffffffffffffffffffffffffff1673ffffffffffffffffffffffffffffffffffffffff16815260200160048201548152602001600582015481526020016006820160009054906101000a900460ff16151515158152602001600782015481525050848681518110610ad8577f4e487b7100000000000000000000000000000000000000000000000000000000600052603260045260246000fd5b6020026020010181905250600185610af09190613751565b945050505b8080610b0090613937565b9150506108a7565b508094505050505090565b610b24610b1e6118ef565b826119be565b610b63576040517f08c379a0000000000000000000000000000000000000000000000000000000008152600401610b5a906135f3565b60405180910390fd5b610b6e838383611a9c565b505050565b610b8e83838360405180602001604052806000815250611022565b505050565b6000806002600084815260200190815260200160002060009054906101000a900473ffffffffffffffffffffffffffffffffffffffff169050600073ffffffffffffffffffffffffffffffffffffffff168173ffffffffffffffffffffffffffffffffffffffff161415610c3c576040517f08c379a0000000000000000000000000000000000000000000000000000000008152600401610c33906134d3565b60405180910390fd5b80915050919050565b60008073ffffffffffffffffffffffffffffffffffffffff168273ffffffffffffffffffffffffffffffffffffffff161415610cb6576040517f08c379a0000000000000000000000000000000000000000000000000000000008152600401610cad906134b3565b60405180910390fd5b600360008373ffffffffffffffffffffffffffffffffffffffff1673ffffffffffffffffffffffffffffffffffffffff168152602001908152602001600020549050919050565b606060018054610d0c906138d4565b80601f0160208091040260200160405190810160405280929190818152602001828054610d38906138d4565b8015610d855780601f10610d5a57610100808354040283529160200191610d85565b820191906000526020600020905b815481529060010190602001808311610d6857829003601f168201915b5050505050905090565b610da1610d9a6118ef565b8383611d03565b5050565b6000600a60008381526020019081526020016000206004015490506000600a600084815260200190815260200160002060010160009054906101000a900473ffffffffffffffffffffffffffffffffffffffff1690506000600a60008581526020019081526020016000206005015490506000600a600086815260200190815260200160002060030160009054906101000a900473ffffffffffffffffffffffffffffffffffffffff169050833414610e93576040517f08c379a0000000000000000000000000000000000000000000000000000000008152600401610e8a906135b3565b60405180910390fd5b33600a600087815260200190815260200160002060020160006101000a81548173ffffffffffffffffffffffffffffffffffffffff021916908373ffffffffffffffffffffffffffffffffffffffff1602179055506001600a600087815260200190815260200160002060060160006101000a81548160ff0219169083151502179055506000600a600087815260200190815260200160002060010160006101000a81548173ffffffffffffffffffffffffffffffffffffffff021916908373ffffffffffffffffffffffffffffffffffffffff160217905550610f776008611e70565b610f82303387611a9c565b8073ffffffffffffffffffffffffffffffffffffffff166108fc839081150290604051600060405180830381858888f19350505050158015610fc8573d6000803e3d6000fd5b508273ffffffffffffffffffffffffffffffffffffffff166108fc8334610fef91906137d8565b9081150290604051600060405180830381858888f1935050505015801561101a573d6000803e3d6000fd5b505050505050565b61103361102d6118ef565b836119be565b611072576040517f08c379a0000000000000000000000000000000000000000000000000000000008152600401611069906135f3565b60405180910390fd5b61107e84848484611e86565b50505050565b6060600061109260076119b0565b90506000806110a160086119b0565b6110ab60076119b0565b6110b591906137d8565b905060008167ffffffffffffffff8111156110f9577f4e487b7100000000000000000000000000000000000000000000000000000000600052604160045260246000fd5b60405190808252806020026020018201604052801561113257816020015b61111f612804565b8152602001906001900390816111175790505b50905060005b84811015611399573073ffffffffffffffffffffffffffffffffffffffff16600a60006001846111689190613751565b815260200190815260200160002060020160009054906101000a900473ffffffffffffffffffffffffffffffffffffffff1673ffffffffffffffffffffffffffffffffffffffff1614156113865760006001826111c59190613751565b90506000600a600083815260200190815260200160002090508060405180610100016040529081600082015481526020016001820160009054906101000a900473ffffffffffffffffffffffffffffffffffffffff1673ffffffffffffffffffffffffffffffffffffffff1673ffffffffffffffffffffffffffffffffffffffff1681526020016002820160009054906101000a900473ffffffffffffffffffffffffffffffffffffffff1673ffffffffffffffffffffffffffffffffffffffff1673ffffffffffffffffffffffffffffffffffffffff1681526020016003820160009054906101000a900473ffffffffffffffffffffffffffffffffffffffff1673ffffffffffffffffffffffffffffffffffffffff1673ffffffffffffffffffffffffffffffffffffffff16815260200160048201548152602001600582015481526020016006820160009054906101000a900460ff16151515158152602001600782015481525050848781518110611369577f4e487b7100000000000000000000000000000000000000000000000000000000600052603260045260246000fd5b60200260200101819052506001866113819190613751565b955050505b808061139190613937565b915050611138565b508094505050505090565b60606113af82611883565b6113ee576040517f08c379a00000000000000000000000000000000000000000000000000000000081526004016113e590613533565b60405180910390fd5b600060066000848152602001908152602001600020805461140e906138d4565b80601f016020809104026020016040519081016040528092919081815260200182805461143a906138d4565b80156114875780601f1061145c57610100808354040283529160200191611487565b820191906000526020600020905b81548152906001019060200180831161146a57829003601f168201915b505050505090506000611498611ee2565b90506000815114156114ae5781925050506114f1565b6000825111156114e35780826040516020016114cb929190613269565b604051602081830303815290604052925050506114f1565b6114ec84611ef9565b925050505b919050565b3373ffffffffffffffffffffffffffffffffffffffff16600a600084815260200190815260200160002060020160009054906101000a900473ffffffffffffffffffffffffffffffffffffffff1673ffffffffffffffffffffffffffffffffffffffff161461159a576040517f08c379a000000000000000000000000000000000000000000000000000000000815260040161159190613473565b60405180910390fd5b80600a600084815260200190815260200160002060050154106115f2576040517f08c379a00000000000000000000000000000000000000000000000000000000081526004016115e990613433565b60405180910390fd5b6000600a600084815260200190815260200160002060060160006101000a81548160ff02191690831515021790555080600a60008481526020019081526020016000206004018190555033600a600084815260200190815260200160002060010160006101000a81548173ffffffffffffffffffffffffffffffffffffffff021916908373ffffffffffffffffffffffffffffffffffffffff16021790555030600a600084815260200190815260200160002060020160006101000a81548173ffffffffffffffffffffffffffffffffffffffff021916908373ffffffffffffffffffffffffffffffffffffffff1602179055506116f06008611fa0565b6116fb333084611a9c565b5050565b6000828210611743576040517f08c379a000000000000000000000000000000000000000000000000000000000815260040161173a906133d3565b60405180910390fd5b61174d6007611e70565b600061175960076119b0565b90506117653382611ffc565b61176f81866121d6565b61177a81858561224a565b809150509392505050565b6000600560008473ffffffffffffffffffffffffffffffffffffffff1673ffffffffffffffffffffffffffffffffffffffff16815260200190815260200160002060008373ffffffffffffffffffffffffffffffffffffffff1673ffffffffffffffffffffffffffffffffffffffff16815260200190815260200160002060009054906101000a900460ff16905092915050565b60007f01ffc9a7000000000000000000000000000000000000000000000000000000007bffffffffffffffffffffffffffffffffffffffffffffffffffffffff1916827bffffffffffffffffffffffffffffffffffffffffffffffffffffffff1916149050919050565b60008073ffffffffffffffffffffffffffffffffffffffff166002600084815260200190815260200160002060009054906101000a900473ffffffffffffffffffffffffffffffffffffffff1673ffffffffffffffffffffffffffffffffffffffff1614159050919050565b600033905090565b816004600083815260200190815260200160002060006101000a81548173ffffffffffffffffffffffffffffffffffffffff021916908373ffffffffffffffffffffffffffffffffffffffff160217905550808273ffffffffffffffffffffffffffffffffffffffff1661196a83610b93565b73ffffffffffffffffffffffffffffffffffffffff167f8c5be1e5ebec7d5bd14f71427d1e84f3dd0314c0f7b2291e5b200ac8c7c3b92560405160405180910390a45050565b600081600001549050919050565b60006119c982611883565b611a08576040517f08c379a00000000000000000000000000000000000000000000000000000000081526004016119ff90613453565b60405180910390fd5b6000611a1383610b93565b90508073ffffffffffffffffffffffffffffffffffffffff168473ffffffffffffffffffffffffffffffffffffffff161480611a555750611a548185611785565b5b80611a9357508373ffffffffffffffffffffffffffffffffffffffff16611a7b846105d1565b73ffffffffffffffffffffffffffffffffffffffff16145b91505092915050565b8273ffffffffffffffffffffffffffffffffffffffff16611abc82610b93565b73ffffffffffffffffffffffffffffffffffffffff1614611b12576040517f08c379a0000000000000000000000000000000000000000000000000000000008152600401611b0990613393565b60405180910390fd5b600073ffffffffffffffffffffffffffffffffffffffff168273ffffffffffffffffffffffffffffffffffffffff161415611b82576040517f08c379a0000000000000000000000000000000000000000000000000000000008152600401611b79906133f3565b60405180910390fd5b611b8d838383612493565b611b986000826118f7565b6001600360008573ffffffffffffffffffffffffffffffffffffffff1673ffffffffffffffffffffffffffffffffffffffff1681526020019081526020016000206000828254611be891906137d8565b925050819055506001600360008473ffffffffffffffffffffffffffffffffffffffff1673ffffffffffffffffffffffffffffffffffffffff1681526020019081526020016000206000828254611c3f9190613751565b92505081905550816002600083815260200190815260200160002060006101000a81548173ffffffffffffffffffffffffffffffffffffffff021916908373ffffffffffffffffffffffffffffffffffffffff160217905550808273ffffffffffffffffffffffffffffffffffffffff168473ffffffffffffffffffffffffffffffffffffffff167fddf252ad1be2c89b69c2b068fc378daa952ba7f163c4a11628f55a4df523b3ef60405160405180910390a4611cfe838383612498565b505050565b8173ffffffffffffffffffffffffffffffffffffffff168373ffffffffffffffffffffffffffffffffffffffff161415611d72576040517f08c379a0000000000000000000000000000000000000000000000000000000008152600401611d6990613413565b60405180910390fd5b80600560008573ffffffffffffffffffffffffffffffffffffffff1673ffffffffffffffffffffffffffffffffffffffff16815260200190815260200160002060008473ffffffffffffffffffffffffffffffffffffffff1673ffffffffffffffffffffffffffffffffffffffff16815260200190815260200160002060006101000a81548160ff0219169083151502179055508173ffffffffffffffffffffffffffffffffffffffff168373ffffffffffffffffffffffffffffffffffffffff167f17307eab39ab6107e8899845ad3d59bd9653f200f220920489ca2b5937696c3183604051611e639190613316565b60405180910390a3505050565b6001816000016000828254019250508190555050565b611e91848484611a9c565b611e9d8484848461249d565b611edc576040517f08c379a0000000000000000000000000000000000000000000000000000000008152600401611ed390613373565b60405180910390fd5b50505050565b606060405180602001604052806000815250905090565b6060611f0482611883565b611f43576040517f08c379a0000000000000000000000000000000000000000000000000000000008152600401611f3a90613573565b60405180910390fd5b6000611f4d611ee2565b90506000815111611f6d5760405180602001604052806000815250611f98565b80611f7784612634565b604051602001611f88929190613269565b6040516020818303038152906040525b915050919050565b60008160000154905060008111611fec576040517f08c379a0000000000000000000000000000000000000000000000000000000008152600401611fe390613353565b60405180910390fd5b6001810382600001819055505050565b600073ffffffffffffffffffffffffffffffffffffffff168273ffffffffffffffffffffffffffffffffffffffff16141561206c576040517f08c379a000000000000000000000000000000000000000000000000000000000815260040161206390613513565b60405180910390fd5b61207581611883565b156120b5576040517f08c379a00000000000000000000000000000000000000000000000000000000081526004016120ac906133b3565b60405180910390fd5b6120c160008383612493565b6001600360008473ffffffffffffffffffffffffffffffffffffffff1673ffffffffffffffffffffffffffffffffffffffff16815260200190815260200160002060008282546121119190613751565b92505081905550816002600083815260200190815260200160002060006101000a81548173ffffffffffffffffffffffffffffffffffffffff021916908373ffffffffffffffffffffffffffffffffffffffff160217905550808273ffffffffffffffffffffffffffffffffffffffff16600073ffffffffffffffffffffffffffffffffffffffff167fddf252ad1be2c89b69c2b068fc378daa952ba7f163c4a11628f55a4df523b3ef60405160405180910390a46121d260008383612498565b5050565b6121df82611883565b61221e576040517f08c379a0000000000000000000000000000000000000000000000000000000008152600401612215906134f3565b60405180910390fd5b8060066000848152602001908152602001600020908051906020019061224592919061288d565b505050565b6000821161228d576040517f08c379a000000000000000000000000000000000000000000000000000000000815260040161228490613593565b60405180910390fd5b808210156122d0576040517f08c379a00000000000000000000000000000000000000000000000000000000081526004016122c790613613565b60405180910390fd5b6040518061010001604052808481526020013373ffffffffffffffffffffffffffffffffffffffff1681526020013073ffffffffffffffffffffffffffffffffffffffff1681526020013373ffffffffffffffffffffffffffffffffffffffff1681526020018381526020018281526020016000151581526020016000815250600a60008581526020019081526020016000206000820151816000015560208201518160010160006101000a81548173ffffffffffffffffffffffffffffffffffffffff021916908373ffffffffffffffffffffffffffffffffffffffff16021790555060408201518160020160006101000a81548173ffffffffffffffffffffffffffffffffffffffff021916908373ffffffffffffffffffffffffffffffffffffffff16021790555060608201518160030160006101000a81548173ffffffffffffffffffffffffffffffffffffffff021916908373ffffffffffffffffffffffffffffffffffffffff1602179055506080820151816004015560a0820151816005015560c08201518160060160006101000a81548160ff02191690831515021790555060e0820151816007015590505061248e333085611a9c565b505050565b505050565b505050565b60006124be8473ffffffffffffffffffffffffffffffffffffffff166127e1565b15612627578373ffffffffffffffffffffffffffffffffffffffff1663150b7a026124e76118ef565b8786866040518563ffffffff1660e01b815260040161250994939291906132a8565b602060405180830381600087803b15801561252357600080fd5b505af192505050801561255457506040513d601f19601f820116820180604052508101906125519190612c39565b60015b6125d7573d8060008114612584576040519150601f19603f3d011682016040523d82523d6000602084013e612589565b606091505b506000815114156125cf576040517f08c379a00000000000000000000000000000000000000000000000000000000081526004016125c690613373565b60405180910390fd5b805181602001fd5b63150b7a0260e01b7bffffffffffffffffffffffffffffffffffffffffffffffffffffffff1916817bffffffffffffffffffffffffffffffffffffffffffffffffffffffff19161491505061262c565b600190505b949350505050565b6060600082141561267c576040518060400160405280600181526020017f300000000000000000000000000000000000000000000000000000000000000081525090506127dc565b600082905060005b600082146126ae57808061269790613937565b915050600a826126a791906137a7565b9150612684565b60008167ffffffffffffffff8111156126f0577f4e487b7100000000000000000000000000000000000000000000000000000000600052604160045260246000fd5b6040519080825280601f01601f1916602001820160405280156127225781602001600182028036833780820191505090505b5090505b600085146127d55760018261273b91906137d8565b9150600a8561274a9190613980565b60306127569190613751565b60f81b818381518110612792577f4e487b7100000000000000000000000000000000000000000000000000000000600052603260045260246000fd5b60200101907effffffffffffffffffffffffffffffffffffffffffffffffffffffffffffff1916908160001a905350600a856127ce91906137a7565b9450612726565b8093505050505b919050565b6000808273ffffffffffffffffffffffffffffffffffffffff163b119050919050565b60405180610100016040528060008152602001600073ffffffffffffffffffffffffffffffffffffffff168152602001600073ffffffffffffffffffffffffffffffffffffffff168152602001600073ffffffffffffffffffffffffffffffffffffffff1681526020016000815260200160008152602001600015158152602001600081525090565b828054612899906138d4565b90600052602060002090601f0160209004810192826128bb5760008555612902565b82601f106128d457805160ff1916838001178555612902565b82800160010185558215612902579182015b828111156129015782518255916020019190600101906128e6565b5b50905061290f9190612913565b5090565b5b8082111561292c576000816000905550600101612914565b5090565b600061294361293e84613673565b61364e565b90508281526020810184848401111561295b57600080fd5b612966848285613892565b509392505050565b600061298161297c846136a4565b61364e565b90508281526020810184848401111561299957600080fd5b6129a4848285613892565b509392505050565b6000813590506129bb816140d9565b92915050565b6000813590506129d0816140f0565b92915050565b6000813590506129e581614107565b92915050565b6000815190506129fa81614107565b92915050565b600082601f830112612a1157600080fd5b8135612a21848260208601612930565b91505092915050565b600082601f830112612a3b57600080fd5b8135612a4b84826020860161296e565b91505092915050565b600081359050612a638161411e565b92915050565b600060208284031215612a7b57600080fd5b6000612a89848285016129ac565b91505092915050565b60008060408385031215612aa557600080fd5b6000612ab3858286016129ac565b9250506020612ac4858286016129ac565b9150509250929050565b600080600060608486031215612ae357600080fd5b6000612af1868287016129ac565b9350506020612b02868287016129ac565b9250506040612b1386828701612a54565b9150509250925092565b60008060008060808587031215612b3357600080fd5b6000612b41878288016129ac565b9450506020612b52878288016129ac565b9350506040612b6387828801612a54565b925050606085013567ffffffffffffffff811115612b8057600080fd5b612b8c87828801612a00565b91505092959194509250565b60008060408385031215612bab57600080fd5b6000612bb9858286016129ac565b9250506020612bca858286016129c1565b9150509250929050565b60008060408385031215612be757600080fd5b6000612bf5858286016129ac565b9250506020612c0685828601612a54565b9150509250929050565b600060208284031215612c2257600080fd5b6000612c30848285016129d6565b91505092915050565b600060208284031215612c4b57600080fd5b6000612c59848285016129eb565b91505092915050565b600080600060608486031215612c7757600080fd5b600084013567ffffffffffffffff811115612c9157600080fd5b612c9d86828701612a2a565b9350506020612cae86828701612a54565b9250506040612cbf86828701612a54565b9150509250925092565b600060208284031215612cdb57600080fd5b6000612ce984828501612a54565b91505092915050565b60008060408385031215612d0557600080fd5b6000612d1385828601612a54565b9250506020612d2485828601612a54565b9150509250929050565b6000612d3a83836131a9565b6101008301905092915050565b612d508161381e565b82525050565b612d5f8161380c565b82525050565b6000612d70826136e5565b612d7a8185613713565b9350612d85836136d5565b8060005b83811015612db6578151612d9d8882612d2e565b9750612da883613706565b925050600181019050612d89565b5085935050505092915050565b612dcc81613830565b82525050565b612ddb81613830565b82525050565b6000612dec826136f0565b612df68185613724565b9350612e068185602086016138a1565b612e0f81613a6d565b840191505092915050565b6000612e25826136fb565b612e2f8185613735565b9350612e3f8185602086016138a1565b612e4881613a6d565b840191505092915050565b6000612e5e826136fb565b612e688185613746565b9350612e788185602086016138a1565b80840191505092915050565b6000612e91601b83613735565b9150612e9c82613a7e565b602082019050919050565b6000612eb4603283613735565b9150612ebf82613aa7565b604082019050919050565b6000612ed7602583613735565b9150612ee282613af6565b604082019050919050565b6000612efa601c83613735565b9150612f0582613b45565b602082019050919050565b6000612f1d602d83613735565b9150612f2882613b6e565b604082019050919050565b6000612f40602483613735565b9150612f4b82613bbd565b604082019050919050565b6000612f63601983613735565b9150612f6e82613c0c565b602082019050919050565b6000612f86602c83613735565b9150612f9182613c35565b604082019050919050565b6000612fa9602c83613735565b9150612fb482613c84565b604082019050919050565b6000612fcc602083613735565b9150612fd782613cd3565b602082019050919050565b6000612fef603883613735565b9150612ffa82613cfc565b604082019050919050565b6000613012602a83613735565b915061301d82613d4b565b604082019050919050565b6000613035602983613735565b915061304082613d9a565b604082019050919050565b6000613058602e83613735565b915061306382613de9565b604082019050919050565b600061307b602083613735565b915061308682613e38565b602082019050919050565b600061309e603183613735565b91506130a982613e61565b604082019050919050565b60006130c1602c83613735565b91506130cc82613eb0565b604082019050919050565b60006130e4602f83613735565b91506130ef82613eff565b604082019050919050565b6000613107602483613735565b915061311282613f4e565b604082019050919050565b600061312a602483613735565b915061313582613f9d565b604082019050919050565b600061314d602183613735565b915061315882613fec565b604082019050919050565b6000613170603183613735565b915061317b8261403b565b604082019050919050565b6000613193603283613735565b915061319e8261408a565b604082019050919050565b610100820160008201516131c0600085018261324b565b5060208201516131d36020850182612d47565b5060408201516131e66040850182612d47565b5060608201516131f96060850182612d47565b50608082015161320c608085018261324b565b5060a082015161321f60a085018261324b565b5060c082015161323260c0850182612dc3565b5060e082015161324560e085018261324b565b50505050565b61325481613888565b82525050565b61326381613888565b82525050565b60006132758285612e53565b91506132818284612e53565b91508190509392505050565b60006020820190506132a26000830184612d56565b92915050565b60006080820190506132bd6000830187612d56565b6132ca6020830186612d56565b6132d7604083018561325a565b81810360608301526132e98184612de1565b905095945050505050565b6000602082019050818103600083015261330e8184612d65565b905092915050565b600060208201905061332b6000830184612dd2565b92915050565b6000602082019050818103600083015261334b8184612e1a565b905092915050565b6000602082019050818103600083015261336c81612e84565b9050919050565b6000602082019050818103600083015261338c81612ea7565b9050919050565b600060208201905081810360008301526133ac81612eca565b9050919050565b600060208201905081810360008301526133cc81612eed565b9050919050565b600060208201905081810360008301526133ec81612f10565b9050919050565b6000602082019050818103600083015261340c81612f33565b9050919050565b6000602082019050818103600083015261342c81612f56565b9050919050565b6000602082019050818103600083015261344c81612f79565b9050919050565b6000602082019050818103600083015261346c81612f9c565b9050919050565b6000602082019050818103600083015261348c81612fbf565b9050919050565b600060208201905081810360008301526134ac81612fe2565b9050919050565b600060208201905081810360008301526134cc81613005565b9050919050565b600060208201905081810360008301526134ec81613028565b9050919050565b6000602082019050818103600083015261350c8161304b565b9050919050565b6000602082019050818103600083015261352c8161306e565b9050919050565b6000602082019050818103600083015261354c81613091565b9050919050565b6000602082019050818103600083015261356c816130b4565b9050919050565b6000602082019050818103600083015261358c816130d7565b9050919050565b600060208201905081810360008301526135ac816130fa565b9050919050565b600060208201905081810360008301526135cc8161311d565b9050919050565b600060208201905081810360008301526135ec81613140565b9050919050565b6000602082019050818103600083015261360c81613163565b9050919050565b6000602082019050818103600083015261362c81613186565b9050919050565b6000602082019050613648600083018461325a565b92915050565b6000613658613669565b90506136648282613906565b919050565b6000604051905090565b600067ffffffffffffffff82111561368e5761368d613a3e565b5b61369782613a6d565b9050602081019050919050565b600067ffffffffffffffff8211156136bf576136be613a3e565b5b6136c882613a6d565b9050602081019050919050565b6000819050602082019050919050565b600081519050919050565b600081519050919050565b600081519050919050565b6000602082019050919050565b600082825260208201905092915050565b600082825260208201905092915050565b600082825260208201905092915050565b600081905092915050565b600061375c82613888565b915061376783613888565b9250827fffffffffffffffffffffffffffffffffffffffffffffffffffffffffffffffff0382111561379c5761379b6139b1565b5b828201905092915050565b60006137b282613888565b91506137bd83613888565b9250826137cd576137cc6139e0565b5b828204905092915050565b60006137e382613888565b91506137ee83613888565b925082821015613801576138006139b1565b5b828203905092915050565b600061381782613868565b9050919050565b600061382982613868565b9050919050565b60008115159050919050565b60007fffffffff0000000000000000000000000000000000000000000000000000000082169050919050565b600073ffffffffffffffffffffffffffffffffffffffff82169050919050565b6000819050919050565b82818337600083830152505050565b60005b838110156138bf5780820151818401526020810190506138a4565b838111156138ce576000848401525b50505050565b600060028204905060018216806138ec57607f821691505b60208210811415613900576138ff613a0f565b5b50919050565b61390f82613a6d565b810181811067ffffffffffffffff8211171561392e5761392d613a3e565b5b80604052505050565b600061394282613888565b91507fffffffffffffffffffffffffffffffffffffffffffffffffffffffffffffffff821415613975576139746139b1565b5b600182019050919050565b600061398b82613888565b915061399683613888565b9250826139a6576139a56139e0565b5b828206905092915050565b7f4e487b7100000000000000000000000000000000000000000000000000000000600052601160045260246000fd5b7f4e487b7100000000000000000000000000000000000000000000000000000000600052601260045260246000fd5b7f4e487b7100000000000000000000000000000000000000000000000000000000600052602260045260246000fd5b7f4e487b7100000000000000000000000000000000000000000000000000000000600052604160045260246000fd5b6000601f19601f8301169050919050565b7f436f756e7465723a2064656372656d656e74206f766572666c6f770000000000600082015250565b7f4552433732313a207472616e7366657220746f206e6f6e20455243373231526560008201527f63656976657220696d706c656d656e7465720000000000000000000000000000602082015250565b7f4552433732313a207472616e736665722066726f6d20696e636f72726563742060008201527f6f776e6572000000000000000000000000000000000000000000000000000000602082015250565b7f4552433732313a20746f6b656e20616c7265616479206d696e74656400000000600082015250565b7f726f79616c74792073686f756c64206265206c657373207468616e207468652060008201527f6c697374696e6720707269636500000000000000000000000000000000000000602082015250565b7f4552433732313a207472616e7366657220746f20746865207a65726f2061646460008201527f7265737300000000000000000000000000000000000000000000000000000000602082015250565b7f4552433732313a20617070726f766520746f2063616c6c657200000000000000600082015250565b7f70726963652073686f756c642062652061746c6561737420677265617465722060008201527f7468616e20726f79616c74790000000000000000000000000000000000000000602082015250565b7f4552433732313a206f70657261746f7220717565727920666f72206e6f6e657860008201527f697374656e7420746f6b656e0000000000000000000000000000000000000000602082015250565b7f4f6e6c79206974656d206f776e65722063616e20726573656c6c20746f6b656e600082015250565b7f4552433732313a20617070726f76652063616c6c6572206973206e6f74206f7760008201527f6e6572206e6f7220617070726f76656420666f7220616c6c0000000000000000602082015250565b7f4552433732313a2062616c616e636520717565727920666f7220746865207a6560008201527f726f206164647265737300000000000000000000000000000000000000000000602082015250565b7f4552433732313a206f776e657220717565727920666f72206e6f6e657869737460008201527f656e7420746f6b656e0000000000000000000000000000000000000000000000602082015250565b7f45524337323155524953746f726167653a2055524920736574206f66206e6f6e60008201527f6578697374656e7420746f6b656e000000000000000000000000000000000000602082015250565b7f4552433732313a206d696e7420746f20746865207a65726f2061646472657373600082015250565b7f45524337323155524953746f726167653a2055524920717565727920666f722060008201527f6e6f6e6578697374656e7420746f6b656e000000000000000000000000000000602082015250565b7f4552433732313a20617070726f76656420717565727920666f72206e6f6e657860008201527f697374656e7420746f6b656e0000000000000000000000000000000000000000602082015250565b7f4552433732314d657461646174613a2055524920717565727920666f72206e6f60008201527f6e6578697374656e7420746f6b656e0000000000000000000000000000000000602082015250565b7f73656c6c696e67207072696365206d757374206265206772656174657220746860008201527f616e203000000000000000000000000000000000000000000000000000000000602082015250565b7f53656e742076616c7565206973206c657373207468616e2061736b696e67207060008201527f7269636500000000000000000000000000000000000000000000000000000000602082015250565b7f4552433732313a20617070726f76616c20746f2063757272656e74206f776e6560008201527f7200000000000000000000000000000000000000000000000000000000000000602082015250565b7f4552433732313a207472616e736665722063616c6c6572206973206e6f74206f60008201527f776e6572206e6f7220617070726f766564000000000000000000000000000000602082015250565b7f53656c6c696e67207072696365206d7573742062652061746c6561737420677260008201527f6561746572207468616e20726f79616c74790000000000000000000000000000602082015250565b6140e28161380c565b81146140ed57600080fd5b50565b6140f981613830565b811461410457600080fd5b50565b6141108161383c565b811461411b57600080fd5b50565b61412781613888565b811461413257600080fd5b5056fea2646970667358221220a5be3b1884aa8b14fecc68c4530dfb669ba16737b38dd49b5dd151b69b04b44d64736f6c63430008040033",
  "linkReferences": {},
  "deployedLinkReferences": {}
}